{
  "_format": "hh-sol-artifact-1",
  "contractName": "OTCSwap",
  "sourceName": "contracts/OTCSwap.sol",
  "abi": [
    {
      "inputs": [],
      "name": "ReentrancyGuardReentrantCall",
      "type": "error"
    },
    {
      "inputs": [
        {
          "internalType": "address",
          "name": "token",
          "type": "address"
        }
      ],
      "name": "SafeERC20FailedOperation",
      "type": "error"
    },
    {
      "anonymous": false,
      "inputs": [
        {
          "indexed": true,
          "internalType": "uint256",
          "name": "orderId",
          "type": "uint256"
        },
        {
          "indexed": true,
          "internalType": "address",
          "name": "maker",
          "type": "address"
        },
        {
          "indexed": false,
          "internalType": "uint256",
          "name": "cancelledAt",
          "type": "uint256"
        }
      ],
      "name": "OrderCancelled",
      "type": "event"
    },
    {
      "anonymous": false,
      "inputs": [
        {
          "indexed": true,
          "internalType": "uint256",
          "name": "orderId",
          "type": "uint256"
        },
        {
          "indexed": true,
          "internalType": "address",
          "name": "maker",
          "type": "address"
        },
        {
          "indexed": true,
          "internalType": "address",
          "name": "partner",
          "type": "address"
        },
        {
          "indexed": false,
          "internalType": "address",
          "name": "sellToken",
          "type": "address"
        },
        {
          "indexed": false,
          "internalType": "uint256",
          "name": "sellAmount",
          "type": "uint256"
        },
        {
          "indexed": false,
          "internalType": "address",
          "name": "buyToken",
          "type": "address"
        },
        {
          "indexed": false,
          "internalType": "uint256",
          "name": "buyAmount",
          "type": "uint256"
        },
        {
          "indexed": false,
          "internalType": "uint256",
          "name": "createdAt",
          "type": "uint256"
        }
      ],
      "name": "OrderCreated",
      "type": "event"
    },
    {
      "anonymous": false,
      "inputs": [
        {
          "indexed": true,
          "internalType": "uint256",
          "name": "orderId",
          "type": "uint256"
        },
        {
          "indexed": true,
          "internalType": "address",
          "name": "maker",
          "type": "address"
        },
        {
          "indexed": true,
          "internalType": "address",
          "name": "taker",
          "type": "address"
        },
        {
          "indexed": false,
          "internalType": "address",
          "name": "sellToken",
          "type": "address"
        },
        {
          "indexed": false,
          "internalType": "uint256",
          "name": "sellAmount",
          "type": "uint256"
        },
        {
          "indexed": false,
          "internalType": "address",
          "name": "buyToken",
          "type": "address"
        },
        {
          "indexed": false,
          "internalType": "uint256",
          "name": "buyAmount",
          "type": "uint256"
        },
        {
          "indexed": false,
          "internalType": "uint256",
          "name": "filledAt",
          "type": "uint256"
        }
      ],
      "name": "OrderFilled",
      "type": "event"
    },
    {
      "inputs": [],
      "name": "MAX_PAGE_SIZE",
      "outputs": [
        {
          "internalType": "uint256",
          "name": "",
          "type": "uint256"
        }
      ],
      "stateMutability": "view",
      "type": "function"
    },
    {
      "inputs": [],
      "name": "ORDER_EXPIRY",
      "outputs": [
        {
          "internalType": "uint256",
          "name": "",
          "type": "uint256"
        }
      ],
      "stateMutability": "view",
      "type": "function"
    },
    {
      "inputs": [
        {
          "internalType": "uint256",
          "name": "orderId",
          "type": "uint256"
        }
      ],
      "name": "cancelOrder",
      "outputs": [],
      "stateMutability": "nonpayable",
      "type": "function"
    },
    {
      "inputs": [
        {
          "internalType": "address",
          "name": "partner",
          "type": "address"
        },
        {
          "internalType": "address",
          "name": "sellToken",
          "type": "address"
        },
        {
          "internalType": "uint256",
          "name": "sellAmount",
          "type": "uint256"
        },
        {
          "internalType": "address",
          "name": "buyToken",
          "type": "address"
        },
        {
          "internalType": "uint256",
          "name": "buyAmount",
          "type": "uint256"
        }
      ],
      "name": "createOrder",
      "outputs": [
        {
          "internalType": "uint256",
          "name": "",
          "type": "uint256"
        }
      ],
      "stateMutability": "nonpayable",
      "type": "function"
    },
    {
      "inputs": [
        {
          "internalType": "uint256",
          "name": "orderId",
          "type": "uint256"
        }
      ],
      "name": "fillOrder",
      "outputs": [],
      "stateMutability": "nonpayable",
      "type": "function"
    },
    {
      "inputs": [
        {
          "internalType": "uint256",
          "name": "offset",
          "type": "uint256"
        },
        {
          "internalType": "uint256",
          "name": "limit",
          "type": "uint256"
        }
      ],
      "name": "getActiveOrders",
      "outputs": [
        {
          "internalType": "address[]",
          "name": "makers",
          "type": "address[]"
        },
        {
          "internalType": "address[]",
          "name": "partners",
          "type": "address[]"
        },
        {
          "internalType": "address[]",
          "name": "sellTokens",
          "type": "address[]"
        },
        {
          "internalType": "uint256[]",
          "name": "sellAmounts",
          "type": "uint256[]"
        },
        {
          "internalType": "address[]",
          "name": "buyTokens",
          "type": "address[]"
        },
        {
          "internalType": "uint256[]",
          "name": "buyAmounts",
          "type": "uint256[]"
        },
        {
          "internalType": "uint256[]",
          "name": "createdAts",
          "type": "uint256[]"
        },
        {
          "internalType": "bool[]",
          "name": "actives",
          "type": "bool[]"
        },
        {
          "internalType": "uint256",
          "name": "nextOffset",
          "type": "uint256"
        }
      ],
      "stateMutability": "view",
      "type": "function"
    },
    {
      "inputs": [],
      "name": "nextOrderId",
      "outputs": [
        {
          "internalType": "uint256",
          "name": "",
          "type": "uint256"
        }
      ],
      "stateMutability": "view",
      "type": "function"
    },
    {
      "inputs": [
        {
          "internalType": "uint256",
          "name": "",
          "type": "uint256"
        }
      ],
      "name": "orders",
      "outputs": [
        {
          "internalType": "address",
          "name": "maker",
          "type": "address"
        },
        {
          "internalType": "address",
          "name": "partner",
          "type": "address"
        },
        {
          "internalType": "address",
          "name": "sellToken",
          "type": "address"
        },
        {
          "internalType": "uint256",
          "name": "sellAmount",
          "type": "uint256"
        },
        {
          "internalType": "address",
          "name": "buyToken",
          "type": "address"
        },
        {
          "internalType": "uint256",
          "name": "buyAmount",
          "type": "uint256"
        },
        {
          "internalType": "uint256",
          "name": "createdAt",
          "type": "uint256"
        },
        {
          "internalType": "bool",
          "name": "active",
          "type": "bool"
        }
      ],
      "stateMutability": "view",
      "type": "function"
    }
  ],
  "bytecode": "0x608060405234801561001057600080fd5b50600160008190555061274c806100286000396000f3fe608060405234801561001057600080fd5b50600436106100885760003560e01c80637c95cdc61161005b5780637c95cdc6146101015780639008bae814610139578063a85c38ef14610157578063de57fb8a1461018e57610088565b80632a58b3301461008d57806348f4da20146100ab578063514fcac7146100c957806367b830ad146100e5575b600080fd5b6100956101be565b6040516100a29190611a5a565b60405180910390f35b6100b36101c4565b6040516100c09190611a5a565b60405180910390f35b6100e360048036038101906100de9190611aa6565b6101c9565b005b6100ff60048036038101906100fa9190611aa6565b6105b3565b005b61011b60048036038101906101169190611ad3565b610a04565b60405161013099989796959493929190611d8b565b60405180910390f35b610141611106565b60405161014e9190611a5a565b60405180910390f35b610171600480360381019061016c9190611aa6565b61110d565b604051610185989796959493929190611e6e565b60405180910390f35b6101a860048036038101906101a39190611f18565b6111e2565b6040516101b59190611a5a565b60405180910390f35b60025481565b606481565b6101d161184e565b600060016000838152602001908152602001600020604051806101000160405290816000820160009054906101000a900473ffffffffffffffffffffffffffffffffffffffff1673ffffffffffffffffffffffffffffffffffffffff1673ffffffffffffffffffffffffffffffffffffffff1681526020016001820160009054906101000a900473ffffffffffffffffffffffffffffffffffffffff1673ffffffffffffffffffffffffffffffffffffffff1673ffffffffffffffffffffffffffffffffffffffff1681526020016002820160009054906101000a900473ffffffffffffffffffffffffffffffffffffffff1673ffffffffffffffffffffffffffffffffffffffff1673ffffffffffffffffffffffffffffffffffffffff168152602001600382015481526020016004820160009054906101000a900473ffffffffffffffffffffffffffffffffffffffff1673ffffffffffffffffffffffffffffffffffffffff1673ffffffffffffffffffffffffffffffffffffffff16815260200160058201548152602001600682015481526020016007820160009054906101000a900460ff16151515158152505090508060e001516103c9576040517f08c379a00000000000000000000000000000000000000000000000000000000081526004016103c090611ff0565b60405180910390fd5b3373ffffffffffffffffffffffffffffffffffffffff16816000015173ffffffffffffffffffffffffffffffffffffffff161461043b576040517f08c379a00000000000000000000000000000000000000000000000000000000081526004016104329061205c565b60405180910390fd5b60008160400151905060008260600151905060016000858152602001908152602001600020600080820160006101000a81549073ffffffffffffffffffffffffffffffffffffffff02191690556001820160006101000a81549073ffffffffffffffffffffffffffffffffffffffff02191690556002820160006101000a81549073ffffffffffffffffffffffffffffffffffffffff021916905560038201600090556004820160006101000a81549073ffffffffffffffffffffffffffffffffffffffff0219169055600582016000905560068201600090556007820160006101000a81549060ff0219169055505061055633828473ffffffffffffffffffffffffffffffffffffffff166118949092919063ffffffff16565b3373ffffffffffffffffffffffffffffffffffffffff16847fc4058ebc534b64ecb27b2d4eaa1904f98997ec18ebe6ada4117593dde89478cc4260405161059d9190611a5a565b60405180910390a35050506105b0611913565b50565b6105bb61184e565b60006001600083815260200190815260200160002090508060070160009054906101000a900460ff16610623576040517f08c379a000000000000000000000000000000000000000000000000000000000815260040161061a90611ff0565b60405180910390fd5b600073ffffffffffffffffffffffffffffffffffffffff168160010160009054906101000a900473ffffffffffffffffffffffffffffffffffffffff1673ffffffffffffffffffffffffffffffffffffffff1614806106d157503373ffffffffffffffffffffffffffffffffffffffff168160010160009054906101000a900473ffffffffffffffffffffffffffffffffffffffff1673ffffffffffffffffffffffffffffffffffffffff16145b610710576040517f08c379a0000000000000000000000000000000000000000000000000000000008152600401610707906120c8565b60405180910390fd5b62093a8081600601546107239190612117565b421115610765576040517f08c379a000000000000000000000000000000000000000000000000000000000815260040161075c90612197565b60405180910390fd5b60008160070160006101000a81548160ff02191690831515021790555060006003600160038054905061079891906121b7565b815481106107a9576107a86121eb565b5b9060005260206000200154905060006004600085815260200190815260200160002054905081600382815481106107e3576107e26121eb565b5b9060005260206000200181905550806004600084815260200190815260200160002081905550600380548061081b5761081a61221a565b5b6001900381819060005260206000200160009055905560046000858152602001908152602001600020600090556108c1338460000160009054906101000a900473ffffffffffffffffffffffffffffffffffffffff1685600501548660040160009054906101000a900473ffffffffffffffffffffffffffffffffffffffff1673ffffffffffffffffffffffffffffffffffffffff1661191d909392919063ffffffff16565b6109143384600301548560020160009054906101000a900473ffffffffffffffffffffffffffffffffffffffff1673ffffffffffffffffffffffffffffffffffffffff166118949092919063ffffffff16565b3373ffffffffffffffffffffffffffffffffffffffff168360000160009054906101000a900473ffffffffffffffffffffffffffffffffffffffff1673ffffffffffffffffffffffffffffffffffffffff16857f60b7113981128c0b499d9ac221fe6556cbc4ab7387ba512a7fedda7f0792bf038660020160009054906101000a900473ffffffffffffffffffffffffffffffffffffffff1687600301548860040160009054906101000a900473ffffffffffffffffffffffffffffffffffffffff168960050154426040516109ee959493929190612249565b60405180910390a4505050610a01611913565b50565b60608060608060608060608060008060648b11610a21578a610a24565b60645b90506000808d14610a415760018d610a3c91906121b7565b610a51565b6001600254610a5091906121b7565b5b90506000808290505b8382108015610a6a575060008110155b15610b49576000600160008381526020019081526020016000209050600073ffffffffffffffffffffffffffffffffffffffff168160000160009054906101000a900473ffffffffffffffffffffffffffffffffffffffff1673ffffffffffffffffffffffffffffffffffffffff1614158015610af557508060070160009054906101000a900460ff165b8015610b13575062093a808160060154610b0f9190612117565b4211155b15610b27578280610b239061229c565b9350505b60008203610b355750610b49565b8180610b40906122e4565b92505050610a5a565b8167ffffffffffffffff811115610b6357610b6261230d565b5b604051908082528060200260200182016040528015610b915781602001602082028036833780820191505090505b509c508167ffffffffffffffff811115610bae57610bad61230d565b5b604051908082528060200260200182016040528015610bdc5781602001602082028036833780820191505090505b509b508167ffffffffffffffff811115610bf957610bf861230d565b5b604051908082528060200260200182016040528015610c275781602001602082028036833780820191505090505b509a508167ffffffffffffffff811115610c4457610c4361230d565b5b604051908082528060200260200182016040528015610c725781602001602082028036833780820191505090505b5099508167ffffffffffffffff811115610c8f57610c8e61230d565b5b604051908082528060200260200182016040528015610cbd5781602001602082028036833780820191505090505b5098508167ffffffffffffffff811115610cda57610cd961230d565b5b604051908082528060200260200182016040528015610d085781602001602082028036833780820191505090505b5097508167ffffffffffffffff811115610d2557610d2461230d565b5b604051908082528060200260200182016040528015610d535781602001602082028036833780820191505090505b5096508167ffffffffffffffff811115610d7057610d6f61230d565b5b604051908082528060200260200182016040528015610d9e5781602001602082028036833780820191505090505b50955060008391505b8281108015610db7575060008210155b156110f1576000600160008481526020019081526020016000209050600073ffffffffffffffffffffffffffffffffffffffff168160000160009054906101000a900473ffffffffffffffffffffffffffffffffffffffff1673ffffffffffffffffffffffffffffffffffffffff1614158015610e4257508060070160009054906101000a900460ff165b8015610e60575062093a808160060154610e5c9190612117565b4211155b156110cf578060000160009054906101000a900473ffffffffffffffffffffffffffffffffffffffff168f8381518110610e9d57610e9c6121eb565b5b602002602001019073ffffffffffffffffffffffffffffffffffffffff16908173ffffffffffffffffffffffffffffffffffffffff16815250508060010160009054906101000a900473ffffffffffffffffffffffffffffffffffffffff168e8381518110610f0f57610f0e6121eb565b5b602002602001019073ffffffffffffffffffffffffffffffffffffffff16908173ffffffffffffffffffffffffffffffffffffffff16815250508060020160009054906101000a900473ffffffffffffffffffffffffffffffffffffffff168d8381518110610f8157610f806121eb565b5b602002602001019073ffffffffffffffffffffffffffffffffffffffff16908173ffffffffffffffffffffffffffffffffffffffff168152505080600301548c8381518110610fd357610fd26121eb565b5b6020026020010181815250508060040160009054906101000a900473ffffffffffffffffffffffffffffffffffffffff168b8381518110611017576110166121eb565b5b602002602001019073ffffffffffffffffffffffffffffffffffffffff16908173ffffffffffffffffffffffffffffffffffffffff168152505080600501548a8381518110611069576110686121eb565b5b602002602001018181525050806006015489838151811061108d5761108c6121eb565b5b60200260200101818152505060018883815181106110ae576110ad6121eb565b5b60200260200101901515908115158152505081806110cb9061229c565b9250505b600083036110dd57506110f1565b82806110e8906122e4565b93505050610da7565b81955050505050509295985092959850929598565b62093a8081565b60016020528060005260406000206000915090508060000160009054906101000a900473ffffffffffffffffffffffffffffffffffffffff16908060010160009054906101000a900473ffffffffffffffffffffffffffffffffffffffff16908060020160009054906101000a900473ffffffffffffffffffffffffffffffffffffffff16908060030154908060040160009054906101000a900473ffffffffffffffffffffffffffffffffffffffff16908060050154908060060154908060070160009054906101000a900460ff16905088565b60006111ec61184e565b600073ffffffffffffffffffffffffffffffffffffffff168573ffffffffffffffffffffffffffffffffffffffff160361125b576040517f08c379a000000000000000000000000000000000000000000000000000000000815260040161125290612388565b60405180910390fd5b600073ffffffffffffffffffffffffffffffffffffffff168373ffffffffffffffffffffffffffffffffffffffff16036112ca576040517f08c379a00000000000000000000000000000000000000000000000000000000081526004016112c1906123f4565b60405180910390fd5b8273ffffffffffffffffffffffffffffffffffffffff168573ffffffffffffffffffffffffffffffffffffffff1603611338576040517f08c379a000000000000000000000000000000000000000000000000000000000815260040161132f90612460565b60405180910390fd5b6000841161137b576040517f08c379a0000000000000000000000000000000000000000000000000000000008152600401611372906124cc565b60405180910390fd5b600082116113be576040517f08c379a00000000000000000000000000000000000000000000000000000000081526004016113b590612538565b60405180910390fd5b838573ffffffffffffffffffffffffffffffffffffffff1663dd62ed3e33306040518363ffffffff1660e01b81526004016113fa929190612558565b602060405180830381865afa158015611417573d6000803e3d6000fd5b505050506040513d601f19601f8201168201806040525081019061143b9190612596565b101561147c576040517f08c379a00000000000000000000000000000000000000000000000000000000081526004016114739061260f565b60405180910390fd5b838573ffffffffffffffffffffffffffffffffffffffff166370a08231336040518263ffffffff1660e01b81526004016114b6919061262f565b602060405180830381865afa1580156114d3573d6000803e3d6000fd5b505050506040513d601f19601f820116820180604052508101906114f79190612596565b1015611538576040517f08c379a000000000000000000000000000000000000000000000000000000000815260040161152f90612696565b60405180910390fd5b6115653330868873ffffffffffffffffffffffffffffffffffffffff1661191d909392919063ffffffff16565b60006002600081548092919061157a9061229c565b9190505590506040518061010001604052803373ffffffffffffffffffffffffffffffffffffffff1681526020018873ffffffffffffffffffffffffffffffffffffffff1681526020018773ffffffffffffffffffffffffffffffffffffffff1681526020018681526020018573ffffffffffffffffffffffffffffffffffffffff168152602001848152602001428152602001600115158152506001600083815260200190815260200160002060008201518160000160006101000a81548173ffffffffffffffffffffffffffffffffffffffff021916908373ffffffffffffffffffffffffffffffffffffffff16021790555060208201518160010160006101000a81548173ffffffffffffffffffffffffffffffffffffffff021916908373ffffffffffffffffffffffffffffffffffffffff16021790555060408201518160020160006101000a81548173ffffffffffffffffffffffffffffffffffffffff021916908373ffffffffffffffffffffffffffffffffffffffff1602179055506060820151816003015560808201518160040160006101000a81548173ffffffffffffffffffffffffffffffffffffffff021916908373ffffffffffffffffffffffffffffffffffffffff16021790555060a0820151816005015560c0820151816006015560e08201518160070160006101000a81548160ff021916908315150217905550905050600380549050600460008381526020019081526020016000208190555060038190806001815401808255809150506001900390600052602060002001600090919091909150558673ffffffffffffffffffffffffffffffffffffffff163373ffffffffffffffffffffffffffffffffffffffff16827fba77eb4849e638c9816ffd868126ef4071e34833364988066280d137317c6fc08989898942604051611831959493929190612249565b60405180910390a480915050611845611913565b95945050505050565b60026000540361188a576040517f3ee5aeb500000000000000000000000000000000000000000000000000000000815260040160405180910390fd5b6002600081905550565b61190e838473ffffffffffffffffffffffffffffffffffffffff1663a9059cbb85856040516024016118c79291906126b6565b604051602081830303815290604052915060e01b6020820180517bffffffffffffffffffffffffffffffffffffffffffffffffffffffff838183161783525050505061199f565b505050565b6001600081905550565b611999848573ffffffffffffffffffffffffffffffffffffffff166323b872dd868686604051602401611952939291906126df565b604051602081830303815290604052915060e01b6020820180517bffffffffffffffffffffffffffffffffffffffffffffffffffffffff838183161783525050505061199f565b50505050565b600080602060008451602086016000885af1806119c2576040513d6000823e3d81fd5b3d9250600051915050600082146119dd5760018114156119f9565b60008473ffffffffffffffffffffffffffffffffffffffff163b145b15611a3b57836040517f5274afe7000000000000000000000000000000000000000000000000000000008152600401611a32919061262f565b60405180910390fd5b50505050565b6000819050919050565b611a5481611a41565b82525050565b6000602082019050611a6f6000830184611a4b565b92915050565b600080fd5b611a8381611a41565b8114611a8e57600080fd5b50565b600081359050611aa081611a7a565b92915050565b600060208284031215611abc57611abb611a75565b5b6000611aca84828501611a91565b91505092915050565b60008060408385031215611aea57611ae9611a75565b5b6000611af885828601611a91565b9250506020611b0985828601611a91565b9150509250929050565b600081519050919050565b600082825260208201905092915050565b6000819050602082019050919050565b600073ffffffffffffffffffffffffffffffffffffffff82169050919050565b6000611b6a82611b3f565b9050919050565b611b7a81611b5f565b82525050565b6000611b8c8383611b71565b60208301905092915050565b6000602082019050919050565b6000611bb082611b13565b611bba8185611b1e565b9350611bc583611b2f565b8060005b83811015611bf6578151611bdd8882611b80565b9750611be883611b98565b925050600181019050611bc9565b5085935050505092915050565b600081519050919050565b600082825260208201905092915050565b6000819050602082019050919050565b611c3881611a41565b82525050565b6000611c4a8383611c2f565b60208301905092915050565b6000602082019050919050565b6000611c6e82611c03565b611c788185611c0e565b9350611c8383611c1f565b8060005b83811015611cb4578151611c9b8882611c3e565b9750611ca683611c56565b925050600181019050611c87565b5085935050505092915050565b600081519050919050565b600082825260208201905092915050565b6000819050602082019050919050565b60008115159050919050565b611d0281611ced565b82525050565b6000611d148383611cf9565b60208301905092915050565b6000602082019050919050565b6000611d3882611cc1565b611d428185611ccc565b9350611d4d83611cdd565b8060005b83811015611d7e578151611d658882611d08565b9750611d7083611d20565b925050600181019050611d51565b5085935050505092915050565b6000610120820190508181036000830152611da6818c611ba5565b90508181036020830152611dba818b611ba5565b90508181036040830152611dce818a611ba5565b90508181036060830152611de28189611c63565b90508181036080830152611df68188611ba5565b905081810360a0830152611e0a8187611c63565b905081810360c0830152611e1e8186611c63565b905081810360e0830152611e328185611d2d565b9050611e42610100830184611a4b565b9a9950505050505050505050565b611e5981611b5f565b82525050565b611e6881611ced565b82525050565b600061010082019050611e84600083018b611e50565b611e91602083018a611e50565b611e9e6040830189611e50565b611eab6060830188611a4b565b611eb86080830187611e50565b611ec560a0830186611a4b565b611ed260c0830185611a4b565b611edf60e0830184611e5f565b9998505050505050505050565b611ef581611b5f565b8114611f0057600080fd5b50565b600081359050611f1281611eec565b92915050565b600080600080600060a08688031215611f3457611f33611a75565b5b6000611f4288828901611f03565b9550506020611f5388828901611f03565b9450506040611f6488828901611a91565b9350506060611f7588828901611f03565b9250506080611f8688828901611a91565b9150509295509295909350565b600082825260208201905092915050565b7f4f72646572206e6f742061637469766500000000000000000000000000000000600082015250565b6000611fda601083611f93565b9150611fe582611fa4565b602082019050919050565b6000602082019050818103600083015261200981611fcd565b9050919050565b7f4e6f74206f72646572206d616b65720000000000000000000000000000000000600082015250565b6000612046600f83611f93565b915061205182612010565b602082019050919050565b6000602082019050818103600083015261207581612039565b9050919050565b7f4e6f7420617574686f72697a656420706172746e657200000000000000000000600082015250565b60006120b2601683611f93565b91506120bd8261207c565b602082019050919050565b600060208201905081810360008301526120e1816120a5565b9050919050565b7f4e487b7100000000000000000000000000000000000000000000000000000000600052601160045260246000fd5b600061212282611a41565b915061212d83611a41565b9250828201905080821115612145576121446120e8565b5b92915050565b7f4f72646572206578706972656400000000000000000000000000000000000000600082015250565b6000612181600d83611f93565b915061218c8261214b565b602082019050919050565b600060208201905081810360008301526121b081612174565b9050919050565b60006121c282611a41565b91506121cd83611a41565b92508282039050818111156121e5576121e46120e8565b5b92915050565b7f4e487b7100000000000000000000000000000000000000000000000000000000600052603260045260246000fd5b7f4e487b7100000000000000000000000000000000000000000000000000000000600052603160045260246000fd5b600060a08201905061225e6000830188611e50565b61226b6020830187611a4b565b6122786040830186611e50565b6122856060830185611a4b565b6122926080830184611a4b565b9695505050505050565b60006122a782611a41565b91507fffffffffffffffffffffffffffffffffffffffffffffffffffffffffffffffff82036122d9576122d86120e8565b5b600182019050919050565b60006122ef82611a41565b915060008203612302576123016120e8565b5b600182039050919050565b7f4e487b7100000000000000000000000000000000000000000000000000000000600052604160045260246000fd5b7f496e76616c69642073656c6c20746f6b656e0000000000000000000000000000600082015250565b6000612372601283611f93565b915061237d8261233c565b602082019050919050565b600060208201905081810360008301526123a181612365565b9050919050565b7f496e76616c69642062757920746f6b656e000000000000000000000000000000600082015250565b60006123de601183611f93565b91506123e9826123a8565b602082019050919050565b6000602082019050818103600083015261240d816123d1565b9050919050565b7f53616d6520746f6b656e73000000000000000000000000000000000000000000600082015250565b600061244a600b83611f93565b915061245582612414565b602082019050919050565b600060208201905081810360008301526124798161243d565b9050919050565b7f496e76616c69642073656c6c20616d6f756e7400000000000000000000000000600082015250565b60006124b6601383611f93565b91506124c182612480565b602082019050919050565b600060208201905081810360008301526124e5816124a9565b9050919050565b7f496e76616c69642062757920616d6f756e740000000000000000000000000000600082015250565b6000612522601283611f93565b915061252d826124ec565b602082019050919050565b6000602082019050818103600083015261255181612515565b9050919050565b600060408201905061256d6000830185611e50565b61257a6020830184611e50565b9392505050565b60008151905061259081611a7a565b92915050565b6000602082840312156125ac576125ab611a75565b5b60006125ba84828501612581565b91505092915050565b7f496e73756666696369656e7420616c6c6f77616e636500000000000000000000600082015250565b60006125f9601683611f93565b9150612604826125c3565b602082019050919050565b60006020820190508181036000830152612628816125ec565b9050919050565b60006020820190506126446000830184611e50565b92915050565b7f496e73756666696369656e742062616c616e6365000000000000000000000000600082015250565b6000612680601483611f93565b915061268b8261264a565b602082019050919050565b600060208201905081810360008301526126af81612673565b9050919050565b60006040820190506126cb6000830185611e50565b6126d86020830184611a4b565b9392505050565b60006060820190506126f46000830186611e50565b6127016020830185611e50565b61270e6040830184611a4b565b94935050505056fea2646970667358221220d03d5d3580bbc826c81af872e92f0aac33d44575bbb84f04599e6e34c24ff82564736f6c63430008140033",
  "linkReferences": {},
  "deployedLinkReferences": {}
}